:1000000000000320D1010000758400003984000045
:1000100039840000398400003984000039840000EC
:1000200039840000398400003984000075840000A0
:100030007584000039840000758400002984000064
:1000400075840000758400007584000075840000CC
:1000500075840000758400007584000075840000BC
:1000600075840000758400007584000075840000AC
:10007000758400007584000075840000758400009C
:10008000758400007584000075840000758400008C
:10009000758400007584000075840000758400007C
:1000A000597D00007584000075840000758400008F
:1000B000758400007584000075840000A5A7000009
:1000C0007584000049AF000075840000D1B40000C1
:1000D00075840000FDBA000075840000758400007E
:1000E000758400007584000075840000758400002C
:1000F000758400007584000075840000758400001C
:10010000758400007584000075840000758400000B
:1001100075840000A18F00007584000075840000C4
:1001200075840000758400007584000075840000EB
:1001300075840000758400007584000075840000DB
:10014000B19C0000758400004DC000007584000063
:1001500075840000758400007584000075840000BB
:1001600075840000758400007584000075840000AB
:10017000758400007584000075840000758400009B
:10018000758400007584000075840000758400008B
:100190007584000075840000ADC600007584000001
:1001A000758400007584000075840000758400006B
:1001B000758400007584000075840000758400005B
:1001C000758400007584000075840000758400004B
:1001D0005C4B4CF2205210B51A804DF628121A8052
:1001E00000BF00BF08F04AF9574B4FF030621A6069
:1001F000564A9A60564ADA60564B4FF470021A60BB
:10020000554B564A1A60564B1A6812F4807204D144
:1002100054490A604FF4A8521A60534B1A781107D8
:1002200003D51A7842F008021A70504B504C5148CE
:10023000AA221A70504A00239918A14203D21958D1
:1002400099500433F8E74D4B4D4900228B4202D2BE
:1002500043F8042BFAE74B484B4900235A581A50ED
:100260000433B3F5E87FF9D1484B494A802103F8BC
:10027000011B9342FBD1474B424A1A60464B8A22EC
:100280001A70A3F5805324225A70A0221A709A790A
:100290009207FCD59A79D406FCD4404B9A7902F0A7
:1002A0000C02082AFAD13E4B60221A7002331A78E7
:1002B000802AFCD1394B01221A715D225A719A7938
:1002C0009006FCD59979354A4906FBD5354B364918
:1002D00019600021596020231370937903F00C03F7
:1002E0000C2BFAD1314B324A1A60324B324A1A6027
:1002F00000225A60072243F8042C304AC3F80C2D20
:1003000062B608F0D3FC174B1B68DA0705D52C48FA
:1003100008F000FC2B4B2C4A1A602C4B1B785B0618
:1003200009D5284C284A2368934204D1244808F070
:10033000F1FB002323600EF0F7F808F0A5F809F0B0
:10034000B7FDFEE70E20054030800440823F0400E8
:100350000100002B88ED00E0002008E0030000858C
:1003600010D0034014D0034002D0074000E0074003
:10037000C421FF1F14F801006017FF1FC821FF1FD1
:100380002056FF1F0012FF1F0000000000E400E0E5
:1003900064E400E008ED00E0005006400040064044
:1003A00001E007404480044000000602048004404D
:1003B000C010070014E000E01FBF02000000202072
:1003C00042C4E05B1CE00340A5C3945A00F0074020
:1003D000FFFFFFFFFFFFFFFFFFFFFFFFFFFFFFFF2D
:1003E000FFFFFFFFFFFFFFFFFFFFFFFFFFFFFFFF1D
:1003F000FFFFFFFFFFFFFFFFFFFFFFFFFFFFFFFF0D
:10040000FFFFFFFFFFFFFFFFFFFFFFFFDEF9FFFF23
:1004100010B5054C237833B9044B13B10448AFF33E
:1004200000800123237010BDC821FF1F00000000C1
:1004300014F8010008B5064B1BB106480649AFF396
:1004400000800648036813B1054B03B1984708BD07
:100450000000000014F80100CC21FF1FC421FF1F81
:10046000000000004069704710B582B00A460023C2
:100470008DF800308DF801308DF802300468246862
:100480008DF804308DF805308DF80630694601ABE3
:10049000A04702B010BD00BF00207047704700BFEA
:1004A000F0B585B000240025194BC3E90045194B70
:1004B0001B6801930198184B1B68C01A0DF0C6FC0D
:1004C00022462B460DF0C8FFC8B1144B1A780132F2
:1004D0001A70104B1B680293029A0F4B1A600EE0C1
:1004E00033788DF80C308DF80D508DF80E5003A830
:1004F000214606F05DF80334BC42F1D105E0084C1A
:1005000004F20547054EFF25EAE705B0F0BD00BF40
:100510003031FF1F3451FF1F1036FF1F504BFF1F9C
:100520006C22FF1F2DE9F04182B0124D0024DFF84C
:100530005080114F114E54F80820E359D31A3178E6
:100540000B448DF80430FF238DF805308DF806300C
:1005500001A8294606F02CF80434033540F25C5318
:100560009C42E8D1054B1A7802321A7002B0BDE8FD
:10057000F08100BF6C22FF1F7426FF1F504BFF1F2E
:10058000D02BFF1FFFFFFFFF2DE9F04F2DED088B54
:1005900087B0A54B9B78022B0AD10022A34BA4491C
:1005A000C1E90023A34B1B680193019AA24B1A6077
:1005B0009F4BD3E900452046294600229B4B0DF076
:1005C00007FB06460F4600229C4B0DF0B5FC024689
:1005D0000B468FA1D1E900010DF0FAFA0DF06EFF84
:1005E000974B1870934B1B6802930298924B1B68B1
:1005F000C01A0DF02BFC02460B46304639460DF072
:100600000DFF70B12046294600228E4B0DF0E2FA14
:10061000874BC3E90001874B1B680393039A864B02
:100620001A60834BD3E900010022874B0DF0F6FEE0
:1006300018B1864B1A7802321A70854B1B6813B1B9
:10064000012B6ED0DEE0834B1F68834B1B689F42FB
:1006500063DA07EB4703814A02EB0308BB00804AD9
:1006600002EB030B7F4A02EB030A0026DFF8C0917E
:100670009FED69AB9FED6ABB5BF806000DF0F6FBE2
:1006800041EC180B5AF806000DF0F0FBD9E90045D3
:1006900002460B460DF050FC41EC190B51EC180BC7
:1006A00053EC182B0DF048FC02460B4651EC190B8D
:1006B0000DF090FA41EC180B2046294622462B46B5
:1006C0000DF03AFC02460B4651EC180B0DF080FA87
:1006D00004460D4653EC1A2B0DF0BEFEA8B1204681
:1006E000294653EC1B2B0DF099FE70B1544B1B782F
:1006F000564A12788DF81020FF228DF811208DF8BF
:10070000123004A8414605F053FF0137043608F1C2
:100710000308514B1B68BB42AEDC01224C4B1A60F4
:1007200070E04D4B1F68504B1B689F4267DA07EB28
:1007300047034A4A02EB0308BB00494A02EB030B9A
:10074000484A02EB030A0026DFF8E4909FED32AB43
:100750009FED33BB5BF806000DF088FB41EC190BF5
:100760005AF806000DF082FB41EC180BD9E9004560
:1007700051EC190B53EC192B0DF0DEFB41EC190B6E
:1007800051EC180B53EC182B0DF0D6FB02460B4620
:1007900051EC190B0DF01EFA41EC180B20462946BE
:1007A00022462B460DF0C8FB02460B4651EC180BB7
:1007B0000DF00EFA04460D4653EC1A2B0DF04CFECC
:1007C000A8B12046294653EC1B2B0DF027FE70B133
:1007D0001B4B1B781D4A12788DF81420FF228DF8D0
:1007E00015208DF8163005A8414605F0E1FE0137C9
:1007F000043608F103081C4B1B68BB42AADC00222C
:10080000134B1A6007B0BDEC088BBDE8F08F00BF3A
:100810000000000000E06F4000000000000034C055
:100820000000000000003440E835FF1F00002440B5
:100830004832FF1F3451FF1F1022FF1F00001840D5
:10084000D031FF1F0000E03F00004240504BFF1F2F
:10085000F835FF1F304CFF1FA017FF1F6C22FF1F32
:100860007426FF1FD02BFF1FD417FF1FAFF300808C
:100870002DE9F04182B0A34B1B6833BB0022A24B91
:100880001A604FF0FF32A14B1A60A14B1A68A2F117
:100890003203A0490B60322B03D001329C4B1A600B
:1008A00013E000229A4B1A609B4A138803EB432102
:1008B00003EB810303F5585319339BB2138003EB09
:1008C0002323C3F342128F4B1A608E4B1B68012BFC
:1008D00027D100228C4B1A604FF0FF328B4B1A60ED
:1008E0008B4B1A68C2F132038A490B6013F1320F45
:1008F00003D00132864B1A6013E00022844B1A6049
:10090000854A138803EB432103EB810303F5585316
:1009100019339BB2138003EB2323C3F34212794BA9
:100920001A60784B1B68022B26D10023764A13608D
:10093000764A1360764B1A68764CA2F11C0121604E
:1009400001321A60082008F09BF923681C2B13D190
:1009500000226F4B1A60704A138803EB432103EBAC
:10096000810303F5585319339BB2138003EB232300
:10097000C3F34212634B1A60624B1B68032B27D1EF
:100980000023614A1360614A1360614B1A68614C2D
:10099000C2F11C01216001321A60082008F070F9D0
:1009A000236813F11C0F13D10022594B1A605A4AC5
:1009B000138803EB432103EB810303F558531933E9
:1009C0009BB2138003EB2323C3F342124D4B1A60F7
:1009D0004C4B1B68042B27D101224B4B1A60002281
:1009E0004A4B1A604A4B1A684A4CA2F11C0121601A
:1009F00001321A60082008F043F923681C2B13D138
:100A00000022434B1A60444A138803EB432103EB53
:100A1000810303F5585319339BB2138003EB23234F
:100A2000C3F34212374B1A60364B1B68052B28D193
:100A30000122354B1A600022344B1A60344B1A687D
:100A4000344CC2F11C01216001321A60082008F008
:100A500017F9236813F11C0F13D100222C4B1A60D5
:100A60002D4A138803EB432103EB810303F558530D
:100A700019339BB2138003EB2323C3F34212214BA0
:100A80001A60204B1B68062B25D100221E4B1A60D2
:100A900001221E4B1A601E4B1A68A2F132031D4937
:100AA0000B60322B03D00132194B1A6013E0002285
:100AB000174B1A60184A138803EB432103EB810399
:100AC00003F5585319339BB2138003EB2323C3F36D
:100AD00042120C4B1A600B4B1B68072B32D10022C1
:100AE000094B1A600122094B1A60094B1A68C2F1BE
:100AF000320308490B6013F1320F0FD00132044B5F
:100B00001A601FE05432FF1FD435FF1F8831FF1FCA
:100B10001836FF1F9031FF1FB818FF1F0022334BFC
:100B20001A60334A138803EB432103EB810303F577
:100B3000585319339BB2138003EB2323C3F34212A0
:100B40002C4B1A602C4B1A7801321A702B4B1B68F5
:100B500013BB2B4D0024DFF8B8802A4F2A4E54F8DF
:100B600008203368396801FB0233284AA0588342C1
:100B70000CD1214B1B788DF80030FF238DF801300C
:100B80008DF802306846294605F012FD043403351D
:100B900040F25C539C42E2D1184B1B68012B22D1DE
:100BA000174D0024DFF86480164F174E54F80820C4
:100BB0003368396801FB0233154AA05883420CD1CF
:100BC0000D4B1B788DF80430FF238DF805308DF820
:100BD000063001A8294605F0EBFC0434033540F249
:100BE0005C539C42E2D102B0BDE8F0811836FF1F91
:100BF000B818FF1F5432FF1F504BFF1FD435FF1F83
:100C00006C22FF1F8831FF1F9031FF1FD02BFF1F69
:100C10007426FF1F2DE9F04784B006460C464D6848
:100C20008369CBB905EB4507FF0038460DF0A4FCFE
:100C3000F06138460DF0A0FC3062012009F040F967
:100C40000746326AF36900210091294605F068FDE4
:100C5000B761384605F07AFDF269A368002B40F3CE
:100C6000238104F12001A44600274CF6CC4E11E16B
:100C700098694844407828B194F80DA080FA5AF059
:100C8000C0B200E0384608FB00F0001205F8010F82
:100C900004338B42ECD1029D039880EAD01303F019
:100CA000AA13584080EAC31383EA933808EA0E086F
:100CB00088EA030383EA883885EAD51303F0AA1388
:100CC0005D4085EAC31383EA933000EA0E00434097
:100CD00083EA803008F0F035030903F00F332B432B
:100CE00000F00F304FEA081808F0F03848EA00002A
:100CF000D071050A9571050C5571000E1071D370F5
:100D0000180A9070180C50701B0E1370D4F80090D5
:100D100094F8128008F101080DF1070563469869FF
:100D200019F8000028B194F80CA080FA5AF0C0B26B
:100D300000E0384608FB00F0001205F8010F04330C
:100D40008B42ECD1029D039880EAD01303F0AA13E2
:100D5000584080EAC31383EA933808EA0E0888EA09
:100D6000030383EA883885EAD51303F0AA135D40AC
:100D700085EAC31383EA933000EA0E00434083EA16
:100D8000803008F0F035030903F00F332B4300F0F7
:100D90000F304FEA081808F0F03848EA0000D07326
:100DA000050A9573050C5573000E1073D372180A5B
:100DB0009072180C50721B0E1372D4F800A094F8A5
:100DC000149009F101090DF1070863469869504430
:100DD000857825B1A07B85FA50F5EDB200E03D465F
:100DE00009FB05F52D1208F8015F04338B42EDD1A4
:100DF000029D039880EAD01303F0AA13584080EABA
:100E0000C31383EA933808EA0E0888EA030383EAE7
:100E1000883885EAD51303F0AA135D4085EAC31329
:100E200083EA933000EA0E00434083EA803008F002
:100E3000F035030903F00F332B4300F00F304FEA76
:100E4000081808F0F03848EA0000D075050A9575D2
:100E5000050C5575000E1075D374180A9074180C93
:100E600050741B0E13741832E07B237BC31A237358
:100E7000207C637BC31A6373607CA37BC31AA37358
:100E800094F91500236803442360A368013BA36021
:100E9000002B09DDD4F8009094F8138008F10108C4
:100EA0000DF107056346E3E6B06905F005FE04B001
:100EB000BDE8F087F0B58FB0847C0091019202927A
:100EC00019788DF8121059788DF813109B788DF8D9
:100ED0001430012C3AD131490B78013303F0070368
:100EE0000B7003F00106F60113F0020F1CBF46F071
:100EF0004006F6B213F0040F18BF46F02006103675
:100F0000F6B20DF1110305AF4FF0000E4FF4807CE7
:100F100001331C46197821B19CFBF1F10131C9B2B2
:100F200000E0714604F8031C01FB0665C5F30725C4
:100F300015B904F806EC02E0013D04F8065C11B1B5
:100F4000013904F8031CBB42E2D10CE000238DF808
:100F500011308DF810308DF80F308DF80E308DF87F
:100F60000D308DF80C3003238DF8153002EB420262
:100F700005AC00231946012644F8041F06FA03F5C0
:100F800015F0FF0F18BF89180133082BF4D103683F
:100F90009B69694698470FB0F0BD00BFE421FF1F71
:100FA000F0B58FB0847C0091019202921A788DF88E
:100FB00012205A788DF813209B788DF81430012C6C
:100FC00039D12B4A1378013303F00703137003F070
:100FD0000105ED0113F0020F1CBF45F04005EDB215
:100FE00013F0040F18BF45F020051035EDB20DF1D8
:100FF000110305AE00274FF4807E013319461A789D
:1010000022B19EFBF2F20132D2B200E03A4601F880
:10101000032C02FB0554C4F3072414B901F8067C21
:1010200002E0013C01F8064C12B1013A01F8032C30
:10103000B342E2D10CE000238DF811308DF810306E
:101040008DF80F308DF80E308DF80D308DF80C3096
:1010500000238DF8153005AB0DA9002243F8042FAD
:101060008B42FBD103689B69694698470FB0F0BD7E
:10107000E421FF1F0F4B03604172026100230372E2
:10108000C36039B11946026942F823100133427A2C
:101090009A42F8DC084B1A680AB9186004E05369F0
:1010A0000BB11A46FBE75061002343618380C38084
:1010B000704700BF10EF00002C52FF1F084A138832
:1010C00003EB432103EB810303F5585319339BB220
:1010D000138003EB2323C3F3C013024A137070473A
:1010E000B818FF1F004BFF1F094A138803EB432169
:1010F00003EB810303F5585319339BB2138003EBC1
:101100002323DBB203EB83031B12024A13707047E5
:10111000B818FF1F8C31FF1F094A138803EB4321C6
:1011200003EB810303F5585319339BB2138003EB90
:101130002323DBB2C3EBC3031B12024A13707047B5
:10114000B818FF1F5022FF1F084A138803EB4321E2
:1011500003EB810303F5585319339BB2138003EB60
:101160002323C3F38113024A13707047B818FF1F7B
:10117000EC4AFF1FF8B5074C074D04F534770026FD
:10118000204606F0DDFA45F8046F3034BC42F7D152
:10119000F8BD00BF6832FF1F0832FF1F2DE9F04184
:1011A00082B0B94AB948038B06EE903AF8EE666A07
:1011B0009FEDB77A66EE876ADFEDB67A66EEA76ACC
:1011C000FDEEE66AC2ED006A438B06EE903AF8EE59
:1011D000666A66EE876A66EEA76AFDEEE66AC2EDAB
:1011E000016AC18B838BCB1806EE903AF8EE666AE3
:1011F00066EE876A66EEA76AFDEEE66AC2ED026AEF
:10120000018C438C1944838CCB1806EE903AF8EE8F
:10121000666A66EE876A66EEA76AFDEEE66AC2ED6A
:10122000036AC48C038D1C44438D1C44034633F86D
:101230002C1F214406EE101AF8EE466A26EE877A35
:1012400067EE277AFDEEE77AC2ED047A00F1360404
:10125000002233F8021F0A44A342FAD107EE102AF3
:10126000BBEEC97ADFED8B7A67EE277AFDEEE77A7F
:10127000854BC3ED057A884B00F14404002233F816
:10128000021F0A44A342FAD107EE102ABBEEC97A24
:10129000DFED807A67EE277AFDEEE77A7A4BC3EDD1
:1012A000067A7E4B00F15804002233F8021F0A44EC
:1012B000A342FAD107EE102ABBEEC97ADFED757AA8
:1012C00067EE277AFDEEE77A6F4BC3ED077A744B32
:1012D00000F17404002233F8021F0A44A342FAD139
:1012E00007EE102ABBEEC97ADFED6A7A67EE277A3D
:1012F000FDEEE77A644BC3ED087A6A4B00F19C047B
:10130000002233F8021F0A44A342FAD107EE102A42
:10131000BBEEC97ADFED5F7A67EE277AFDEEE77AFA
:10132000594BC3ED097A604B00F1D204002233F827
:10133000021F0A44A342FAD107EE102ABBEEC97A73
:10134000DFED547A67EE277AFDEEE77A4E4BC3ED78
:101350000A7A564B00F58F74002233F8021F0A44B4
:10136000A342FAD107EE102ABBEEC97ADFED497A23
:1013700067EE277AFDEEE77A434BC3ED0B7A4C4BD1
:1013800000F5C474002233F8021F0A44A342FAD1C4
:1013900007EE102ABBEEC97ADFED3E7A67EE277AB8
:1013A000FDEEE77A384BC3ED0C7A424B00F21A247B
:1013B000002233F8021F0A44A342FAD107EE102A92
:1013C000BBEEC97ADFED337A67EE277AFDEEE77A76
:1013D0002D4BC3ED0D7A384B00F2E620002233F896
:1013E000021F0A448342FAD1274B07EE102ABBEEB4
:1013F000C97ADFED327A67EE277AFDEEE77AC3ED40
:101400000E7A1D1F2E4C2F4F2F4E03F1340855F826
:10141000040F0CF02BFD41EC100B204606F0A4F954
:10142000204606F015FAA7EC020B204606F028FA33
:10143000A6EC020B30344545E9D1134B1B68002B59
:1014400005DD224B1B680093009A214B1A601F4B4D
:101450001B680193019A1E4B1B68D21A41F2883314
:101460009A420AD901221B4B1A7000231A4A1370A0
:101470001A4A13701A4A137002E00022154B1A70B0
:1014800002B0BDE8F08100BF0C35FF1F9836FF1F8A
:101490000000803800007A44CE36FF1FDC36FF1F84
:1014A000F036FF1F0C37FF1F3437FF1F6A37FF1F4F
:1014B000B637FF1F2038FF1FB238FF1F00541C46ED
:1014C0006832FF1FB04BFF1F2836FF1F3451FF1F2C
:1014D0006822FF1F1436FF1F1C22FF1FD935FF1F74
:1014E000D835FF1F84B0184B9B78022B29D1174B9E
:1014F0001B680193019A164B9B68D21A632A03D882
:101500000122114B9A701CE0104A12680292029A52
:10151000D31A104A9360104A9268D21A1D323A2A9E
:1015200004D80E4A91680131916002E000210B4A13
:101530009160064A126803920399054A9160064A2F
:10154000936004B0704700BFE835FF1F3451FF1FA0
:10155000704BFF1FD431FF1F9835FF1F4431FF1F11
:101560002DE9F04F2DED068B87B00190DFF8A882B2
:10157000974F00252C46DFF8A4A29FED93ABDFF830
:101580005492DFF89CB255F80A6030460CF06EFCBD
:1015900041EC190BB8EC028BF7E8020153EC1A2B63
:1015A0000CF0CAFC02460B4651EC180B0CF012FB77
:1015B00041EC180B51EC190B53EC182B0CF04CFFB1
:1015C00038B155F80B30642E1BDD053345F80B3070
:1015D00008E051EC190B53EC182B0CF03DFF98B1BF
:1015E000642E11DD14F80930022B04D14FF00100F4
:1015F00009F804000CE05BB94FF0020304F809306D
:1016000006E0023345F80B304FF0000004F8090003
:10161000013404350F2CB6D1FFF764FF6D4B9B7876
:10162000022B03D16C4B1A7801321A70694B1B7A6A
:10163000022B03D1694B1A7801321A70654B1B7B60
:10164000022B03D1664B1A7801321A70654B1B7856
:101650005BB9614B1B782BB9604B1B7813B9604B9E
:101660001B7813B103225F4B1A705F4B1B6813F09A
:10167000010F0FD15C4806F013FF58B15B4B1B689C
:101680000393039A5A4B920A1A800A225A805648A8
:1016900006F00CFF554B1B6805930599544B1A88AF
:1016A000C2EB91215A888BB29A4200F285804F4B4F
:1016B0001B680493049A920A4D4B1A80494B1A787E
:1016C0004C4B1A70444B1B78052B94BF002301230D
:1016D000494A1370414A1178052994BF002101211C
:1016E000464A11703E4A1278052A94BF0022012210
:1016F00043480270434880680828CCBF0124002476
:10170000414804700198002856D03F48007818B12D
:101710000522344B1A7023E063B12AB10322314B06
:101720001A70FFF711FD1BE002222E4B1A70FFF713
:10173000F3FC15E0354B1B782BB10022294B1A70B6
:10174000FFF7D2FC0CE031B92AB90122254B1A70FF
:10175000FFF7B4FC04E00122224B1A70FFF7AEFC45
:10176000244B1B78032B1DD8DFE803F0090C021A69
:10177000194B1B780A2B15D9254C174D0AE0FFF79A
:10178000B3FC0FE0FFF79AFC0CE0FFF7C5FC2B78E9
:101790000A2B07D9237803F0FD03012B02D1F4E7CC
:1017A000FFF7D2FC00230C4A13700C4A13700C4A4A
:1017B00013700122174B1A7007B0BDEC068BBDE801
:1017C000F08F00BFAFF30080000000000000084071
:1017D0002836FF1FE835FF1F1C36FF1F5832FF1F3A
:1017E000ED4AFF1F3831FF1F2036FF1F3451FF1F06
:1017F0000836FF1FD131FF1F1C22FF1FD935FF1FE5
:10180000D835FF1F4431FF1FA84BFF1F1436FF1FA1
:101810005022FF1F0C18FF1FB04BFF1F0C35FF1F7E
:10182000184BFF1FAFF300802DE9F0478CB0054641
:101830000E46774B1B68092B4BDC764FDFF800A276
:10184000DAF80020134403EB43015FFA86F88DF8C1
:101850000080FF248DF801408DF80240684639442D
:1018600004F0A6FEDFF8A8916B4B1968D9F8003098
:10187000C91A013901EB41018DF804808DF805404A
:101880008DF8064001A8394404F092FE634B1968B4
:10189000D9F80030194401EB41018DF808808DF82A
:1018A00009408DF80A4002A8394404F081FEDAF8B4
:1018B0000010D9F80030C91A013901EB41018DF847
:1018C0000C808DF80D408DF80E4003A8394404F0CB
:1018D0006FFE4F4B1B68192B23DC4E4F504A12688A
:1018E000D31A013B03EB4301F6B28DF81060FF24DD
:1018F0008DF811408DF8124004A8394404F058FEC8
:10190000484B1968424B1B68194401EB41018DF8A3
:1019100014608DF815408DF8164005A8394404F080
:1019200047FE414B1B68092B48DC3A4E3F4A126880
:10193000D31A013B03EB4301EFB28DF81870FF247B
:101940008DF819408DF81A4006A8314404F030FE95
:10195000DFF8D480364B1968D8F80030194401EB11
:1019600041018DF81C708DF81D408DF81E4007A8B0
:10197000314404F01DFE2F4B1968D8F8003019448B
:1019800001EB41018DF820708DF821408DF8224047
:1019900008A8314404F00CFE274B1968D8F8003031
:1019A000C91A013901EB41018DF824708DF82540E9
:1019B0008DF8264009A8314404F0FAFD1A4B1B6843
:1019C000192B22DC134E194A1268134403EB43010E
:1019D000EDB28DF82850FF248DF829408DF82A406B
:1019E0000AA8314404F0E4FD144B19680E4B1B683F
:1019F000C91A01EB41018DF82C508DF82D408DF85E
:101A00002E400BA8314404F0D3FD0CB0BDE8F087A4
:101A10004018FF1F6C22FF1FC817FF1F6C18FF1F05
:101A2000AC17FF1FA417FF1F6018FF1F0818FF1F28
:101A30000018FF1FEC17FF1FF017FF1F9C17FF1F59
:101A4000C017FF1F30B43F4B1A683F4B1D68AA42B6
:101A500018DA02EB42033D490B44C4B20134197851
:101A600004FB01F109121970597801FB04F1091204
:101A70005970997801FB04F109129970013203330E
:101A8000AA42ECDB324B1A68324B1D68AA4218DAC4
:101A900002EB42032D490B44C4B20134197804FB14
:101AA00001F109121970597801FB04F109125970FA
:101AB000997801FB04F10912997001320333AA42AB
:101AC000ECDB254B1A68254B1D68AA4218DA02EB9D
:101AD00042031E490B44C4B20134197804FB01F1DE
:101AE00009121970597801FB04F10912597099789B
:101AF00001FB04F10912997001320333AA42ECDBB5
:101B0000174B1A68174B1C68A24218DA02EB420303
:101B10000E490B44C1B20131187801FB00F00012EC
:101B20001870587800FB01F000125870987800FB8C
:101B300001F00012987001320333A242ECDB30BC9A
:101B4000704700BF304CFF1FEC17FF1F6C22FF1FB8
:101B5000F817FF1F0018FF1F9C17FF1FA417FF1F78
:101B6000C817FF1FD417FF1F30B491421ADA01EBD8
:101B700041030D4C2344521A0024C0B201301D7899
:101B800000FB05F52D121D705D7805FB00F52D128B
:101B90005D709D7805FB00F52D129D7001340333B7
:101BA0009442ECD130BC70476C22FF1FFFFFFFFF57
:101BB0002DE9F0432DED028B95B00646B0EE408A3C
:101BC000F0EE608A944B9B78022B11D1934FD7E9AA
:101BD0000045204629468EA3D3E900230CF0ACF93A
:101BE00002460B46204629460BF0F2FFC7E90001EA
:101BF0008B4B1B68039303988A4B1B68C01A0CF02D
:101C000025F9864BD3E900230CF026FC88B1864BDE
:101C10001A6801321A60854B1A6801321A60844BC7
:101C20001A6801321A607E4B1B680493049A7D4B3C
:101C30001A60804B1B68012B03D0022B00F00A8135
:101C4000DAE17D4D784C29682368194401EB4101A4
:101C50007A4B1B788DF81430FF238DF815308DF8F2
:101C6000163005A8764B194404F0A2FC2A682368B4
:101C70001344744A1268013A934212DA6F4A127896
:101C800002328DF81820FF228DF81920C8228DF815
:101C90001A20013303EB430306A86949194404F0F1
:101CA00087FC654B1A68604B1B681344654A1268D1
:101CB000023A934212DA614A127804328DF81C20FB
:101CC000FF228DF81D208C228DF81E20023303EB9D
:101CD000430307A85A49194404F06AFC564B1A6892
:101CE000514B1B681344574A1268033A934212DA65
:101CF000524A127806328DF82020FF228DF82120DA
:101D00005A228DF82220033303EB430308A84C49E1
:101D1000194404F04DFC484B1A68434B1B681344AC
:101D2000484A1268043A934212DA444A1278083256
:101D30008DF82420FF228DF8252041228DF82620C1
:101D4000043303EB430309A83D49194404F030FC74
:101D5000354B1A683C4B1B689B1A002B2ADD374A0F
:101D600012788DF82820FF228DF829208DF82A205E
:101D7000013B03EB43030AA83149194404F018FC62
:101D8000314B1A68284B1B68D31A012B26DD2B4ACE
:101D900012788DF82C2000228DF82D2014228DF839
:101DA0002E20023B03EB43030BA82549194404F002
:101DB000FFFB13E0254B1B689A1A1A3202EB420212
:101DC0001E4B1B788DF83030FF238DF831308DF8A5
:101DD00032300CA81A49114404F0EAFB164B1A6879
:101DE000114B1B681A44174B1B68013B9A4240F089
:101DF000038100230D4A13600B4A13600F4B1A78BE
:101E0000134B1A6002220B4B1A60F5E0AFF300800F
:101E1000000000403333EB3FE835FF1F8817FF1FFA
:101E20003451FF1F1022FF1F204CFF1F4018FF1FBF
:101E30006018FF1F8818FF1F9C17FF1F504BFF1FC4
:101E40006C22FF1FA417FF1FEC17FF1FD417FF1FE3
:101E5000CC31FF1F9C4D296801399C4C2368C91A5D
:101E600001EB41019A4B1B788DF83430FF238DF83C
:101E700035308DF836300DA8964B194404F098FB98
:101E80002A682368501EC01A93490968884213DDE6
:101E90008F49097802318DF83810FF218DF83910FB
:101EA000C8218DF83A10023AD31A03EB43030EA867
:101EB0008849194404F07CFB834B1A68834B1B68E8
:101EC000501EC01A844909680131884213DD8049D7
:101ED000097804318DF83C10FF218DF83D108C21DC
:101EE0008DF83E10033AD31A03EB43030FA8794948
:101EF000194404F05DFB744B1A68744B1B68501E48
:101F0000C01A754909680231884213DD70490978A1
:101F100006318DF84010FF218DF841105A218DF8BF
:101F20004210043AD31A03EB430310A86949194439
:101F300004F03EFB644B1A68644B1B68501EC01AC9
:101F4000654909680331884213DD61490978083120
:101F50008DF84410FF218DF8451041218DF8461071
:101F6000053AD31A03EB430311A85A49194404F064
:101F70001FFB564B1B68594A11681944B1F5AB7FDA
:101F800010DC534B1B788DF84830FF238DF8493017
:101F90008DF84A3001EB410112A84E4B194404F070
:101FA00007FB13E04E4A12681344183B03EB43034C
:101FB000474A12788DF84C20FF228DF84D208DF87D
:101FC0004E2013A84349194404F0F2FA3E4B1A6814
:101FD000013A3E4B1B68D21A3F4B1B689A420BD109
:101FE0000023404A1360394A1360394B1A783E4B3C
:101FF0001A6001223D4B1A603B4B18683C4B196834
:10200000FFF712FC324B1B780133DBB2FF2B02D0FF
:102010002F4A137002E000222D4B1A70354BD3E982
:1020200000452046294653EC182B0BF0D3FD804683
:1020300089462046294622A3D3E900230BF07CFFE2
:1020400002460B46404649460BF0C4FD04460D4689
:10205000002200230CF0E2F948B92046294600226C
:10206000254B0CF0F9F928B10020234904E00020A9
:10207000002101E0204629461E4BC3E900010CF077
:10208000F5F9FA2400940021C822F42307F0F2FFA6
:102090001A4B18602046FFF7D5FC3046184B1968DC
:1020A0000D4B1A68FFF760FD3046074B19680B4B64
:1020B0001A68FFF759FD15B0BDEC028BBDE8F0833F
:1020C00000000040E17A843FA417FF1F204CFF1F4F
:1020D000504BFF1F6C22FF1F9C17FF1FD017FF1FC5
:1020E000304CFF1F6018FF1F4031FF1F8818FF1F73
:1020F000CC31FF1F8817FF1F000069401836FF1FF3
:10210000EC17FF1FAFF3008008B5FE209FED0A0B10
:10211000FFF74EFDFE200A4B19680A4B1A68FFF7BD
:1021200023FDFE20084B1968084B1A68FFF71CFDB9
:1021300008BD00BFAFF30080000000000000E03FDA
:10214000EC17FF1FF817FF1FAC17FF1FC017FF1F6B
:1021500008B5FF209FED0A0BFFF72AFDFE200A4B72
:1021600019680A4B1A68FFF7FFFCFE20084B196834
:10217000084B1A68FFF7F8FC08BD00BFAFF30080FA
:10218000000000000000E03FEC17FF1FF817FF1FE2
:10219000AC17FF1FC017FF1F10B40E4C631C04F2D6
:1021A0000644C0B2421C13F8011C02FB01F10912E3
:1021B00003F8011C197801FB02F109121970597812
:1021C00001FB02F1091259700333A342EBD15DF810
:1021D000044B70476C22FF1F2DE9F04F2DED088B4B
:1021E00093B00024364A52F824300134A4B2DBB252
:1021F000FF2BF8D1324E3368C3F3072CC3F30747E4
:102200004FEA136AFF2204924FF0000B05940297E5
:1022100056F8042FD4B2C2F30725EFB20397C2F3E6
:1022200007405FFA80F8C2F307625FFA82F94FEA6B
:102230002B1B5FFA8BF12309059F0F2F0ED8049FEC
:102240004FFA87FE714507DCBEF10E0F04DC791CE6
:10225000C9B2994228BF0B46DFB204978DF844C03B
:10226000029F8DF845708DF846A08DF840508DF88E
:1022700041008DF8422010AA0092124811AA03F0E2
:10228000F3FFFE2C06DCCA46CDF80880DDF80CC052
:10229000A346BDE70C4B9B78022B2DD10B4B1B7833
:1022A000E3B1002200230A49C1E90023094B1B685E
:1022B0000693069A084B1A600022044B1A701BE022
:1022C00040EF00009831FF1FE835FF1FC831FF1FA6
:1022D0004832FF1F3451FF1F1022FF1F002200232E
:1022E000AF49C1E90023AF4B1B680793079AAE4B78
:1022F0001A600122AD4B1A70AA4B1B68089308980C
:10230000AB4BD3E90045AB4B1B68C01A0BF09EFDED
:1023100022462B460CF0A0F870B120462946002238
:10232000A54B0BF057FCA24BC3E900019D4B1B686A
:102330000993099A9F4B1A609A4B1B680A930A9853
:10234000974BD3E90045984B1B68C01A0BF07EFDF4
:1023500022462B460CF080F870B120462946002218
:10236000954B0BF037FC8E4BC3E900018D4B1B687E
:102370000B930B9A8C4B1A608C4B1B78002B40F004
:10238000EB808E4B1F688E4B1C68A7426BDA07EB05
:1023900047038C4A02EB0308BB008B4A02EB030B9A
:1023A0008A4A02EB030A0026DFF804929FED789B2D
:1023B0009FED79BB5BF806000D380BF057FD41EC43
:1023C000180B5AF806000D300BF050FDD9E9004506
:1023D00002460B460BF0B0FD41EC1A0B51EC180B0A
:1023E00053EC182B0BF0A8FD02460B4651EC1A0BD0
:1023F0000BF0F0FB41EC180B2046294622462B46F9
:102400000BF09AFD02460B4651EC180B0BF0E0FB6B
:1024100004460D4653EC192B0CF01EF8D8B120469B
:10242000294653EC1B2B0BF0F9FFA0B1684B1B782E
:1024300000930CA867490022FF2303F087FF9DF853
:10244000303088F800309DF8313088F801309DF840
:10245000323088F802300137594B1C68043608F1D5
:102460000308BC42A6DC5C4B1B689C426FDA04EBA1
:102470004403544A02EB0308A300534A02EB030B44
:10248000524A02EB030A0025DFF824919FED40AB8E
:102490009FED41BB5BF805000D380BF0E7FC41EC0C
:1024A000190B5AF805000D300BF0E0FC41EC180B4D
:1024B000D9E9006751EC190B53EC192B0BF03CFDDB
:1024C00041EC190B51EC180B53EC182B0BF034FDAD
:1024D00002460B4651EC190B0BF07CFB41EC180B40
:1024E0003046394632463B460BF026FD02460B4647
:1024F00051EC180B0BF06CFB06460F4653EC1A2BF5
:102500000BF0AAFFD8B13046394653EC1B2B0BF029
:1025100085FFA0B12E4B1B7800930DA82D490022FA
:10252000FF2303F013FF9DF8343088F800309DF846
:10253000353088F801309DF8363088F802300134A3
:10254000043508F10308244B1B68A342A2DC174B97
:102550001B78002B00F01381184B1F68184B1C6868
:10256000A74280F2988007EB4703164A02EB030864
:10257000BB00154A02EB030B144A02EB030A0026C8
:10258000DFF81C909FED029B9FED03BB26E000BF90
:1025900000000000000024C00000000000002440F3
:1025A000E035FF1F3451FF1F1422FF1FC831FF1FEA
:1025B0004832FF1F1022FF1F0000E03F304CFF1F7A
:1025C000A017FF1F6C22FF1F7426FF1FD02BFF1FB9
:1025D000D035FF1F9831FF1FD417FF1F5BF806008F
:1025E0000D300BF043FC41EC1A0B5AF806000D3885
:1025F0000BF03CFC41EC180BD9E9004551EC1A0BEF
:1026000053EC1A2B0BF098FC41EC1A0B51EC180B05
:1026100053EC182B0BF090FC02460B4651EC1A0BB6
:102620000BF0D8FA41EC180B2046294622462B46DF
:102630000BF082FC02460B4651EC180B0BF0C8FA6B
:1026400004460D4653EC192B0BF006FFD8B120467B
:10265000294653EC1B2B0BF0E1FEA0B1504B1B782D
:1026600000930EA84F49C822FF2303F06FFE9DF888
:10267000383088F800309DF8393088F801309DF8FE
:102680003A3088F802300137474B1C68043608F1AD
:102690000308BC42A2DC454B1B689C426FDA04EB8A
:1026A0004403434A02EB0308A300424A02EB030B34
:1026B000414A02EB030A0025DFF800919FED34AB9D
:1026C0009FED35BB5BF805000D300BF0CFFB41EC07
:1026D000190B5AF805000D380BF0C8FB41EC180B2C
:1026E000D9E9006751EC190B53EC192B0BF024FCC2
:1026F00041EC190B51EC180B53EC182B0BF01CFC94
:1027000002460B4651EC190B0BF064FA41EC180B26
:102710003046394632463B460BF00EFC02460B462D
:1027200051EC180B0BF054FA06460F4653EC1A2BDB
:102730000BF092FED8B13046394653EC1B2B0BF010
:102740006DFEA0B1164B1B7800930FA81549C82247
:10275000FF2303F0FBFD9DF83C3088F800309DF826
:102760003D3088F801309DF83E3088F80230013461
:10277000043508F103080D4B1B68A342A2DCFA20C4
:10278000FFF70AFD13B0BDEC088BBDE8F08F00BF6A
:1027900000000000000024C00000000000002440F1
:1027A000D035FF1F9831FF1FA017FF1FD417FF1F41
:1027B0006C22FF1F7426FF1FD02BFF1FE035FF1F69
:1027C0002DE9F04F89B0212005F09CFD6423009392
:1027D000002140F2FF320B4607F04CFCC0B2714BB7
:1027E0001870714B1870714B1B781BB1704B1A78B5
:1027F00001321A7000246F4A52F824300134A4B216
:10280000DBB2FF2BF8D16B4E3368C3F3072CC3F355
:1028100007474FEA136AFF2204924FF0000B05941A
:10282000029756F8042FD4B2C2F30725EFB20397EC
:10283000C2F307405FFA80F8C2F307625FFA82F9D9
:102840004FEA2B1B5FFA8BF12309059F0F2F0ED840
:10285000049F4FFA87FE714507DCBEF10E0F04DCC2
:10286000791CC9B2994228BF0B46DFB204978DF894
:102870001CC0029F8DF81D708DF81EA08DF8185099
:102880008DF819008DF81A2006AA00924A4807AA66
:1028900003F0EAFCFE2C06DCCA46CDF80880DDF821
:1028A0000CC0A346BDE7FEF779FC444B1878FEF751
:1028B00057FE434803F0CCFC70B1424BFF221A7024
:1028C0005A709A70384B1846197803F0CDFD3B4B7F
:1028D0001A7882F001021A70042006F04FF90128DC
:1028E0004BD1394803F0B4FC88B1FEF7FDFBFEF78D
:1028F000E5FBFEF711FCFEF727FC324BFF221A70B6
:102900005A709A70284B1846197803F0ADFD2F4B7A
:102910001B78052B04D8DFE803F00A11181F262DB9
:102920002B4B1A782B4B53F82230984731E02A4B27
:102930001A782A4B53F8223098472AE0284B1A7805
:10294000284B53F82230984723E0274B1A78274B1F
:1029500053F8223098471CE01D4B1A781D4B53F852
:102960002230984715E01E4B1A781E4B53F8223040
:1029700098470EE0FFF730FC0BE0174B1A78174B27
:1029800053F822309847104803F062FC08B1FEF774
:10299000ABFB054B1846197803F066FD09B0BDE89E
:1029A000F08F00BF0C36FF1F884CFF1F084BFF1F26
:1029B000504BFF1F40EF00009831FF1F7018FF1FA2
:1029C000584BFF1F6C22FF1F644BFF1F3831FF1F46
:1029D000EC4AFF1F6417FF1F8C31FF1F2018FF1FD9
:1029E000004BFF1F6418FF1F5022FF1F8C18FF1F92
:1029F0002DE9F04F2DED088B8FB000249C4A52F842
:102A000024300134A4B2DBB2FF2BF8D1984E3368E6
:102A1000C3F3072CC3F307474FEA136AFF2204925C
:102A20004FF0000B0594029756F8042FD4B2C2F36E
:102A30000725EFB20397C2F307405FFA80F8C2F3AD
:102A400007625FFA82F94FEA2B1B5FFA8BF12309C9
:102A5000059F0F2F0ED8049F4FFA87FE714507DCA4
:102A6000BEF10E0F04DC791CC9B2994228BF0B4697
:102A7000DFB204978DF834C0029F8DF835708DF861
:102A800036A08DF830508DF831008DF832200CAA28
:102A9000009278480DAA03F0E7FBFE2C06DCCA463C
:102AA000CDF80880DDF80CC0A346BDE7724BD3E932
:102AB00000010022714B0BF0B1FC60B1704A136849
:102AC00001331360012B06DD6E4B1A78013A1A7040
:102AD00000226B4B1A606C4B9B78022B0AD10022B0
:102AE0006A4B6549C1E90023694B1B680793079A44
:102AF000684B1A60664B1B68089308985E4BD3E9D5
:102B00000045644B1B68C01A0BF0A0F906460F463F
:102B10002046294600225D4B0BF05AF802460B4630
:102B2000304639460BF098FC70B120462946002209
:102B3000594B0BF04FF8504BC3E90001544B1B6845
:102B40000993099A534B1A60544B1B681BB1012B14
:102B500000F0B28035E1524B1F68524B1B689F4218
:102B600077DA07EB4703504A02EB0308BB004F4AF2
:102B700002EB030B4E4A02EB030A0026DFF8F89043
:102B80009FED379B9FED38BB5BF806000BF06EF9AD
:102B900041EC180B5AF806000BF068F9D9E900452A
:102BA00002460B460BF0C8F941EC1A0B51EC180B1E
:102BB00053EC182B0BF0C0F902460B4651EC1A0BE4
:102BC0000BF008F841EC180B2046294622462B460C
:102BD0000BF0B2F902460B4651EC180B0AF0F8FF65
:102BE00041EC180B53EC192B0BF036FC48B351ECAD
:102BF000180B53EC1B2B0BF011FC10B3204629468D
:102C00000BF034FCFF240094002124220B4607F033
:102C100031FA1C4B1A780244264B1B7800930AA801
:102C20001449D2B2234603F091FB9DF8283088F86E
:102C300000309DF8293088F801309DF82A3088F856
:102C400002300137043608F10308164B1B68BB42FB
:102C50009ADC0122114B1A60B3E000BFAFF3008091
:102C600000000000000034C00000000000003440FC
:102C700040EF00009831FF1F4832FF1F0000424024
:102C80005032FF1F504BFF1FE835FF1F000024404C
:102C90003451FF1F1022FF1F0000E03FF835FF1FD7
:102CA000304CFF1FA017FF1F6C22FF1F7426FF1F51
:102CB000D02BFF1FD035FF1F4B4B1F684B4B1B68A2
:102CC0009F427BDA07EB4703494A02EB0308BB004C
:102CD000484A02EB030B484A02EB030A0026DFF8DE
:102CE0002C919FED3D9B9FED3EBB5BF806000BF0EA
:102CF000BDF841EC1A0B5AF806000BF0B7F841EC9E
:102D0000180BD9E9004551EC1A0B53EC1A2B0BF0B8
:102D100013F941EC1A0B51EC180B53EC182B0BF078
:102D20000BF902460B4651EC1A0B0AF053FF41EC2B
:102D3000180B2046294622462B460BF0FDF802468A
:102D40000B4651EC180B0AF043FF41EC180B53EC07
:102D5000192B0BF081FB48B351EC180B53EC1B2BD8
:102D60000BF05CFB10B3204629460BF07FFBFF24E1
:102D70000094002124220B4607F07CF91F4B1A789F
:102D800002441F4B1B7800930BA81E49D2B2234666
:102D900003F0DCFA9DF82C3088F800309DF82D30D7
:102DA00088F801309DF82E3088F80230013704365B
:102DB00008F103080D4B1B68BB4296DC0022124B46
:102DC0001A60FA20FFF7E8F90FB0BDEC088BBDE8F8
:102DD000F08F00BFAFF3008000000000000034C09F
:102DE0000000000000003440A017FF1FD417FF1F91
:102DF0006C22FF1F7426FF1FD02BFF1F504BFF1F9D
:102E0000D035FF1F9831FF1FF835FF1F4832FF1FD5
:102E10002DE9F04387B00024844D854BC3E900457C
:102E2000844BC3E90045844BC3E90045834B1B68D1
:102E300000930098824B1B68C01A0BF007F82246DB
:102E40002B460BF009FB58B37E4B1D68002D21DD8E
:102E50007D4B1C687D4B1F687D4B1E687D4BD3F8F6
:102E600000C07D4B0020864653F8042B0132A2425D
:102E700008BF3A4643F8042CB24208BF43F804CCDA
:102E800053F8042CB2F5AB7FC8BF43F804EC013013
:102E9000A842E9DB694B1B680193019A684B1A60F1
:102EA000664B1B68029302986C4B1B68C01A0AF0B1
:102EB000CDFF00225D4B0BF0CFFA58B3614B1D687C
:102EC000002D21DD604B1C68604B1F68604B1E6845
:102ED000604BD3F800C0624B0020864653F8042BA9
:102EE0000132A24208BF3A4643F8042CB24208BF5E
:102EF00043F804CC53F8042CB2F5AB7FC8BF43F8B9
:102F000004EC0130A842E9DB4C4B1B680393039AA5
:102F1000524B1A60494B1B6804930498514B1B6831
:102F2000C01A0AF093FF0022404B0BF095FA58B3F9
:102F3000444B1D68002D21DD434B1C68434B1F682B
:102F4000434B1E68434BD3F800C0474B00208646D6
:102F500053F8042B0132A24208BF3A4643F8042C2E
:102F6000B24208BF43F804CC53F8042CB2F5AB7F4F
:102F7000C8BF43F804EC0130A842E9DB2F4B1B68C3
:102F80000593059A374B1A602E4B1F68002F47DDBB
:102F900000210E46354BDFF8C08037250A46DFF8A2
:102FA000C0C0DFF8C4E051F8084004EB440418192D
:102FB00013F8049089FA55F903F80490447884FAD8
:102FC00052F44470847884FA52F4847051F80C40BE
:102FD00004EB4404181913F8049089FA52F903F821
:102FE0000490447884FA55F44470847884FA52F456
:102FF000847051F80E4004EB4404181913F804903F
:1030000089FA52F903F80490447884FA52F444702F
:10301000847884FA55F4847001360431BE42C2DBF0
:10302000F920FFF7B9F807B0BDE8F0830000694068
:10303000B018FF1F3818FF1F1818FF1F3451FF1F4B
:103040001022FF1FB817FF1FEC17FF1F0818FF1FE4
:10305000AC17FF1FD017FF1F7418FF1F1422FF1F8C
:103060004C18FF1F1822FF1FD817FF1F6C22FF1FCD
:103070002DE9F04184B0744B9B78022B24D1734A24
:10308000138803EB432103EB810303F558531933F2
:103090009BB2138003EB2323C3F342126C4B1A60E1
:1030A00000226C4B1A606C4BD3E904010BF0DEF983
:1030B0000323009302210522012306F0DBFF0AF01F
:1030C000D5FE664BC3E90001644BD3E9000158A368
:1030D000D3E900230AF07CFD04460D4656A3D3E94C
:1030E00000230BF09BF948B92046294600225C4B8F
:1030F0000BF0B2F930B10020594905E04EA1D1E9F9
:10310000000101E020462946544BC3E90001514B20
:103110001868013018600AF0A9FE02460B460AF052
:103120000BFF45A3D3E900230AF006FF02460B4636
:1031300043A1D1E900010AF04BFD0BF0BFF9C0B289
:103140006928A8BF6920A0F16A01C9B2454B19706E
:10315000454C20460A22002306F0DAFE204606F0FF
:10316000C7FE0122414B1A60394B1B68072B00F246
:103170008C80DFE803F0040E1925324151814FF0B5
:10318000FF323B4B1A60334B1A68333A394B1A60A3
:103190007BE04FF0FF32364B1A602E4B1A68C2F1BB
:1031A0003302344B1A6070E00022314B1A60294B15
:1031B0001A681C3A2F4B1A60082005F061FD64E084
:1031C00000222B4B1A60234B1A68C2F11C02294BB8
:1031D0001A60082005F054FD57E00222234B1A60C4
:1031E0000022234B1A601B4B1A681C3A214B1A60B1
:1031F000082005F045FD48E002221C4B1A60002221
:103200001B4B1A60134B1A68C2F11C02194B1A604F
:10321000082005F035FD38E00122154B1A600D4BF2
:103220001A68C2F13202134B1A602EE0AFF300802D
:10323000000000A09999C93F000000A09999B93FEA
:103240000000000000E06F40E835FF1FB818FF1FC6
:103250005432FF1F1836FF1F2836FF1F3031FF1F63
:1032600000001040D031FF1F5852FF1FD435FF1F00
:103270008831FF1F9031FF1F0122354B1A60354BFB
:103280001A68C2F13202344B1A60344B1A78013298
:103290001A70334B1B68012B24D1324D0024DFF808
:1032A000D0802B4F2C4E54F808203368396801FB2E
:1032B00002332D4AA05883420ED12C4B1B78274A4B
:1032C00012788DF80820FF228DF809208DF80A3039
:1032D00002A8294603F06CF90434033540F25C532C
:1032E0009C42E0D11E4B1B68022B24D11D4D0024B3
:1032F000DFF87480164F184E54F808203368396888
:1033000001FB02331A4AA05883420ED1174B1B7897
:10331000124A12788DF80C20FF228DF80D208DF8BE
:103320000E3003A8294603F043F90434033540F274
:103330005C539C42E0D10B4BDA781A701A795A70C0
:103340005A799A70FC20FEF727FF04B0BDE8F0819F
:103350008831FF1F1836FF1F9031FF1F504BFF1F92
:10336000D435FF1F6C22FF1FD02BFF1FD031FF1F52
:103370007426FF1FAFF30080F0B583B01424214DF5
:10338000214F224E2B8803EB432203EB820243F2B0
:1033900019610A4492B202EB422302EB83030B440D
:1033A0009BB203EB2320C0B2C0EB0020C0F3072088
:1033B000387003EB432E03EB8E030B449BB22B8040
:1033C0008DF80400FF218DF8051003EB2323DBB2F9
:1033D000C3EBC303C3EB03131B126A3B8DF8063028
:1033E00040F2571303FB02F2120C02EB420101A858
:1033F000314403F0DDF8013CC4D1FA20FEF7CCFEE5
:1034000003B0F0BDB818FF1F504BFF1F6C22FF1F09
:103410002DE9F04F91B0A84B1B7813B10022A74BB8
:103420001A700122A64B1A60A64B9B78022B31D151
:103430006FF03302A44B1A60A44ED6E90045204633
:1034400029469BA3D3E900230AF076FD02460B46EA
:10345000204629460AF0BCFBC6E900019C4B1B68CC
:10346000002B17DD9B4D0024DFF88C82FF27984E40
:1034700098F800308DF820308DF82170B4238DF845
:10348000223008A8294603F093F801340335336845
:10349000A342EDDC8B4B1B7B022B34D134228E4BB1
:1034A0001A608E4ED6E900452046294680A3D3E90E
:1034B00000230AF041FD02460B46204629460AF049
:1034C00087FBC6E90001824B1C68854B1B689C4248
:1034D00019DA04EB44037F4D1D44DFF81882FF27FF
:1034E0007F4E98F800308DF824308DF82570B42385
:1034F0008DF8263009A8294603F05AF8013403351F
:103500003368A342EDDC774B1B6804930498764B39
:103510001B68C01A0AF09AFC704BD3E900230AF02A
:103520009BFF60B16C4B1B68062B02DD013B6A4AB6
:1035300013606C4B1B680593059A6B4B1A60694BC3
:103540001B6806930698694B1B68C01A0AF07EFC3C
:103550005E4BD3E900230AF07FFF68B15A4B1B682A
:1035600013F1060F02DA0133574A13605D4B1B68F3
:103570000793079A5D4B1A60574B1E68082E12D1AD
:103580005B4A138803EB432103EB810303F5585394
:1035900019339BB2138003EB2323DBB2C3EB03236A
:1035A0001A12544B1A70484B1D6815F1080F12D1AE
:1035B0004F4A138803EB432103EB810303F5585370
:1035C00019339BB2138003EB2323DBB2C3EB03233A
:1035D0001A12494B1A70494B1A683D4BD3F800E058
:1035E000AEF10604A24224DA354BD3F800809300F2
:1035F000434901EB030C434F1F4402EB420335499F
:1036000001EB030A00210B4689465CF8030000FB2E
:10361000085BF858834507D10AF801900AEB0100CE
:1036200080F8019080F80290013204330331A24205
:10363000EBDB0EF105022A4B1F68BA4224DA204B5D
:10364000D3F800800EEB4E03224919444FEA8E0E48
:103650002B4B03EB0E0C2B4B9E44002399460CEB9B
:103660000300446904FB08640EEB030040698442D4
:1036700005D181F80F9081F8109081F811900132F6
:1036800004330331BA42EADB15F1060FC0F28E8033
:103690001D4B9868A0F11403002B40F3878000268F
:1036A000DFF858B0DFF828A0114C2FE0AFF300800E
:1036B000000000403333EB3F0C18FF1F084BFF1F87
:1036C0008831FF1FE835FF1F3418FF1F104BFF1F05
:1036D000A017FF1F6C22FF1FB417FF1F6022FF1FE0
:1036E000D417FF1F3451FF1F1036FF1F1022FF1F7A
:1036F000B818FF1FB017FF1FD135FF1F304CFF1F39
:103700007426FF1FD02BFF1F0C35FF1FDBF8007046
:103710000737BFB2DAF80030DB1B9BB20393238874
:1037200003EB432803EB880843F21965A8441FFA0A
:1037300088F8A4F80080FF23009300210E220B4696
:1037400006F098FCAC4B1870AC4B93F800902388B3
:1037500003EB432203EB82031D44ADB225801E2000
:10376000822106F07DFC8DF8289005EB2525EDB231
:10377000C5EBC503C5EBC3031B12383B8DF82930DD
:103780008DF82A00039B08FB03F807EB1847BFB22C
:1037900007EB47070AA89A49394402F009FF0136A6
:1037A000984B9868A0F11403B342AFDC964B1B68AA
:1037B000062B00F30A81934B186BA0F11403002B26
:1037C00040F303810026DFF858B2DFF858A28F4C8F
:1037D000BBF80070DAF80030A3F10709C7EB09095C
:1037E0001FFA89F9238803EB432803EB880843F287
:1037F0001965A8441FFA88F8A4F80080FF230093F5
:1038000000210E220B4606F035FC7B4B1870804BD6
:103810001A78238803EB432103EB81032B449BB2EB
:1038200003EB432103EB81010D44ADB225808DF8FC
:103830002C2003EB2323DBB2C3EBC302C3EBC20395
:103840001B12383B8DF82D3005EB2525EDB2642396
:1038500003FB05F31B121E338DF82E3008FB09F80D
:1038600007EB1847BFB207EB47070BA86449394479
:1038700002F09EFE0136634B186BA0F11403B342B5
:10388000A6DCA2E000248DF830408DF83140FF2600
:103890008DF832600CA8414602F08AFED9F800305B
:1038A0002B44013B03EB43018DF834408DF8354048
:1038B0008DF836600DA8394402F07AFED9F8003050
:1038C0005B1B013B03EB43018DF838408DF8394019
:1038D0008DF83A600EA8394402F06AFEDAF800303A
:1038E0005B1B013B03EB43018DF83C408DF83D40F1
:1038F0008DF83E600FA8394402F05AFE013508F1F8
:103900000308062DBED1434BD3E900452046294686
:1039100035A3D3E900230AF05DF906460F46204699
:10392000294633A3D3E900230AF006FB02460B46DF
:10393000304639460AF04EF904460D46002200236F
:103940000AF06CFD48B9204629460022324B0AF0A5
:1039500083FD20B10024304D01E0002400252D4BD3
:10396000C3E900452D4BD3E90045204629461EA357
:10397000D3E900230AF02EF906460F4620462946D1
:103980001BA3D3E900230AF0D7FA02460B463046C0
:1039900039460AF01FF904460D46002200230AF0BA
:1039A0003DFD48B92046294600221B4B0AF054FD34
:1039B00020B10024184D01E000240025174BC3E975
:1039C0000045FC20FEF7E8FB08E0DFF83480002526
:1039D0004746DFF84C90DFF84CA053E711B0BDE844
:1039E000F08F00BFAFF30080000000A09999C93F9D
:1039F00000000040E17A843FD031FF1FD135FF1F26
:103A00006C22FF1F0C35FF1FB417FF1FB818FF1FD4
:103A1000B017FF1F6022FF1F00006940104BFF1FFF
:103A2000A017FF1FD417FF1F2DE9F04383B00E46E8
:103A30001746984601381B2800F2D381DFE810F0C2
:103A40001C002A00380046005400620070007E000E
:103A50008B009900A700B500C300D100DF00ED0086
:103A6000FB00090117012501620170017E018C0133
:103A70009A01A801B601C4018B4B1A680A9B1A442B
:103A80008A4B1A608A4B1A68013A0B9BD21A894BEF
:103A90001A60A6E1864B1A680A9B1A44834B1A6087
:103AA000854B1A68013A0B9BD21A824B1A6098E137
:103AB000814B1A680A9B1A447C4B1A607F4B1A6828
:103AC000013A0B9BD21A7B4B1A608AE17B4B1A6836
:103AD0000A9B1A44754B1A60794B1A68013A0B9B82
:103AE000D21A744B1A607CE1754B1A680A9B1A440F
:103AF0006E4B1A60734B1A68013A0B9BD21A6D4BCE
:103B00001A606EE16F4B1A680A9B1A44674B1A6081
:103B10006D4B1A68013A0B9BD21A664B1A6060E132
:103B2000694B1A68013A0A9B1A44604B1A60674B4A
:103B30001A680B9BD21A5F4B1A6052E1634B1A68EA
:103B40000A9B1A44594B1A60614B1A680B9BD21A94
:103B5000584B1A6045E15E4B1A680A9B1A44534B56
:103B60001A605C4B1A68013A0B9BD21A514B1A60CF
:103B700037E1584B1A680A9B1A444C4B1A60564B53
:103B80001A68013A0B9BD21A4A4B1A6029E1524B30
:103B90001A680A9B1A44454B1A60504B1A68013A3E
:103BA0000B9BD21A434B1A601BE14C4B1A680A9BC1
:103BB0001A443E4B1A604A4B1A68013A0B9BD21AC0
:103BC0003C4B1A600DE1464B1A680A9B1A44374B6E
:103BD0001A60444B1A68013A0B9BD21A354B1A6093
:103BE000FFE0404B1A680A9B1A44304B1A603E4B68
:103BF0001A68013A0B9BD21A2E4B1A60F1E03A4B2D
:103C00001A680A9B1A44294B1A60384B1A68013A01
:103C10000B9BD21A274B1A60E3E0344B1A680A9BBD
:103C20001A44224B1A60324B1A68013A0B9BD21A83
:103C3000204B1A60D5E02E4B1A680A9B1A441B4B86
:103C40001A602C4B1A68013A0B9BD21A194B1A6056
:103C5000C7E0284B1A680A9B1A44144B1A60264B7B
:103C60001A68013A0B9BD21A124B1A60B9E0224B28
:103C70001A680A9B1A440D4B1A60204B1A68013AC5
:103C80000B9BD21A0B4B1A60ABE01C4B1A680A9BB9
:103C90001A44064B1A601A4B1A68013A0B9BD21A47
:103CA000044B1A609DE000BF304CFF1F3C31FF1FEA
:103CB000EC17FF1F0835FF1F1018FF1FF017FF1F1D
:103CC000F417FF1FF817FF1FFC17FF1F0018FF1F37
:103CD0000418FF1F0818FF1F9017FF1F9417FF1FDE
:103CE0009817FF1F9C17FF1FA017FF1FA417FF1F88
:103CF000A817FF1FA818FF1FAC18FF1FAC17FF1F46
:103D00007C17FF1F464B1A680A9B1A44454B1A60E2
:103D1000454B1A68013A0B9BD21A444B1A6060E07B
:103D2000414B1A680A9B1A443E4B1A60404B1A6872
:103D3000013A0B9BD21A3D4B1A6052E03C4B1A6879
:103D40000A9B1A44374B1A603A4B1A68013A0B9B8C
:103D5000D21A364B1A6044E0364B1A680A9B1A4452
:103D6000304B1A60344B1A68013A0B9BD21A2F4B16
:103D70001A6036E0304B1A680A9B1A44294B1A60C5
:103D80002E4B1A68013A0B9BD21A284B1A6028E076
:103D90002A4B1A680A9B1A44224B1A60284B1A684D
:103DA000013A0B9BD21A214B1A601AE0244B1A6875
:103DB0000A9B1A441B4B1A60224B1A68013A0B9B50
:103DC000D21A1A4B1A600CE01E4B1A680A9B1A444E
:103DD000144B1A601C4B1A68013A0B9BD21A134BF6
:103DE0001A60104B1C68114B1B689C4215DC04EBDD
:103DF0004403164D1D44DFF834908DF804608DF8AF
:103E000005708DF8068001A8294602F0D1FB013427
:103E10000335D9F80000A042EFDA03B0BDE8F08323
:103E20007C17FF1F3C31FF1F6C18FF1F0835FF1F59
:103E3000BC17FF1FC017FF1FC417FF1FC817FF1FA6
:103E4000CC17FF1FD017FF1FD417FF1F6C22FF1FB7
:103E500010B50138072800F29880DFE800F004155B
:103E600026394D6074844FF0FF32484B1A60484B3E
:103E70001B68A3F12301474A1160462BCCBF0122E6
:103E80000022454B1A7010BD4FF0FF323F4B1A60B5
:103E90003F4B1B68C3F123013E4A1160462BCCBF48
:103EA000012200223C4B1A7010BD0022374B1A60D1
:103EB000374C23681B3B374A1360102004F0E0FEA8
:103EC0002368342BCCBF01220022334B1A7010BD63
:103ED00000222E4B1A602E4C2368C3F11B032D4A7F
:103EE0001360102004F0CCFE2368342BCCBF0122D9
:103EF0000022294B1A7010BD0022244B1A60244C5A
:103F000023681A3B234A1360102004F0B9FE23688B
:103F1000342BCCBF012200221F4B1A7010BD00228F
:103F20001A4B1A601A4C2368C3F11A03194A13601A
:103F3000102004F0A5FE2368342BCCBF0122002200
:103F4000154B1A7010BD0122104B1A60104B1B68E4
:103F5000A3F134010F4A1160682BCCBF012200226B
:103F60000D4B1A7010BD0122084B1A60084B1B68DC
:103F7000C3F13401074A1160682B03DD0122064BAF
:103F80001A7010BD0022044B1A7010BD8831FF1F3B
:103F90001836FF1F9031FF1F0036FF1F2DE9F0413B
:103FA00082B00338012823D8244D0024DFF8A080F4
:103FB000234F244E54F808203368396801FB02333C
:103FC000214AA05883420CD1204B1B788DF8003039
:103FD000FF238DF801308DF802306846294602F043
:103FE000E7FA0434033540F25C539C42E2D122E00C
:103FF000124D0024DFF85080114F124E54F8082063
:104000003368396801FB0233114AA05883420CD14E
:104010000E4B1B788DF80430FF238DF805308DF89A
:10402000063001A8294602F0C3FA0434033540F2F1
:104030005C539C42E2D102B0BDE8F0816C22FF1FCC
:104040008831FF1F9031FF1F7426FF1F504BFF1F49
:10405000D02BFF1FFFFFFFFFF0B585B03E4B1B7855
:10406000E3B13E4A138803EB432103EB810303F5DD
:10407000585319339BB2138003EB2323DBB203EBBA
:1040800083031B120133364A13600122354B1A7029
:10409000FA22354B1A7000222F4B1A70334B9B7843
:1040A000022B7FD1324B1F7887F001071F70314EF2
:1040B000D6E900452046294625A3D3E9002309F087
:1040C0003BFF02460B462046294609F081FDC6E922
:1040D00000010022284B1A60214B1B68013B042B76
:1040E00004D8DFE803F0161D242B4D001B4A13886B
:1040F00003EB432103EB810303F5585319339BB2C0
:10410000138003EB2323C3F3421201321B4B1A60CB
:1041100048E0002F0CBF02220122184B1A6041E038
:10412000002F0CBF04220322144B1A603AE0002F28
:104130000CBF06220522114B1A6033E0002F0CBF82
:10414000082207220D4B1A602CE000BFAFF300805D
:10415000000000403333EB3F0C18FF1FB818FF1F5F
:104160008017FF1F084BFF1F9431FF1FE835FF1F0B
:10417000C831FF1F3031FF1F1836FF1F5432FF1F99
:10418000794A138803EB432103EB810303F558536A
:1041900019339BB2138003EB2323C3F34212013282
:1041A000724B1A60724B1B6800930098714B1B682E
:1041B000C01A09F04BFE704BD3E900230AF04CF90A
:1041C00048B16E4B1A6801321A60694B1B68019343
:1041D000019A684B1A60654C2068FFF739FE206829
:1041E000FFF7DCFE664B1B78002B79D05E490B880D
:1041F00003EB432203EB820343F2196003449BB2B7
:1042000003EB432203EB8202024492B20A80602154
:104210008DF80810FF218DF8091002EB2222D2B28E
:104220005A2101FB02F212120A328DF80A2040F2E2
:10423000571202FB03F31B0C03EB430302A8514983
:10424000194402F0B5F9504B1B6B042B48DD0024D8
:10425000454D4E4F4B4E2B8803EB432203EB82021E
:1042600043F21960024492B297F800E002EB422355
:1042700002EB830303449BB203EB432103EB810175
:10428000014489B229808DF80CE003EB2323DBB2D3
:10429000C3EBC300C3EBC0031B12383B8DF80D30DA
:1042A00001EB2121C9B2642303FB01F31B121E336E
:1042B0008DF80E3040F2571303FB02F2120C02EBA2
:1042C000420103A8314402F073F901342E4B1B6BF9
:1042D0002F4A82FB0312DB17C3EB6203A342BADC53
:1042E000254BD3E90045204629461BA3D3E90023EB
:1042F00009F070FC06460F462046294618A3D3E96C
:10430000002309F019FE02460B463046394609F0F3
:1043100061FC04460D46002200230AF07FF848B9EC
:104320002046294600221B4B0AF096F820B10024B3
:10433000184D01E0002400250F4BC3E90045114B47
:10434000DA781A701A795A705A799A70124B18786A
:10435000FDF722FF05B0F0BD000000A09999B93F1C
:1043600000000040E17A943FB818FF1F5432FF1F4D
:104370003451FF1F1036FF1F3031FF1F1836FF1F4B
:104380000036FF1F6C22FF1F0C35FF1F504BFF1F15
:1043900067666666000069409431FF1FAFF30080D6
:1043A0002DE9F04F93B00F4602286FD0032800F09C
:1043B0000681012840F07381FF260025B94FDFF800
:1043C000F492DFF8F482D9F80010294401EB41019E
:1043D00000248DF808408DF809408DF80A6002A885
:1043E000394402F0E5F8D8F80010294401EB410106
:1043F0008DF80C408DF80D408DF80E6003A83944FF
:1044000002F0D6F8A84B1968491B01EB41018DF861
:1044100010408DF811408DF8126004A8394402F064
:10442000C7F8D8F80010491B01EB41018DF8144082
:104430008DF815408DF8166005A8394402F0B8F8DB
:1044400000940194022021462246FF23FFF7ECFA54
:1044500000940194032021462246FF23FFF7E4FA4B
:1044600000940194162021462246FF23FFF7DCFA30
:1044700000940194172021462246FF23FFF7D4FA27
:1044800001350A3EF6B2192D9DD108E14FF0FF0823
:1044900046460024834FDFF810B2DFF818A2DBF89D
:1044A00000101239214401EB410100258DF818500C
:1044B0008DF819508DF81A6006A8394402F078F882
:1044C000DAF800101231091B01EB41018DF81C5084
:1044D0008DF81D508DF81E6007A8394402F068F869
:1044E000DFF8D491D9F800101239214401EB4101D1
:1044F0008DF820508DF821508DF8226008A839449D
:1045000002F056F8D9F800101231091B01EB4101F5
:104510008DF824508DF825508DF8266009A839446F
:1045200002F046F8072C3FDCDAF800101231214483
:1045300001EB41018DF828508DF829508DF82A8023
:104540000AA8394402F034F8DBF800101239091BCC
:1045500001EB41018DF82C508DF82D508DF82E80F7
:104560000BA8394402F024F8D9F800101239091BBD
:1045700001EB41018DF830508DF831508DF83280CB
:104580000CA8394402F014F8D9F800101231214473
:1045900001EB41018DF834508DF835508DF836809F
:1045A0000DA8394402F004F801340D3EF6B2A8F12A
:1045B0001C085FFA88F8102C7FF471AF6FE0FF26BB
:1045C0000024DFF8E080DFF8F4A0DFF8F49087BB88
:1045D000364B19680139091B01EB410100258DF8A3
:1045E00038508DF839508DF83A600EA8414401F0EA
:1045F000DFFF2F4B1968214401EB41018DF83C503E
:104600008DF83D508DF83E600FA8414401F0D0FF79
:1046100000950195022029462A46FF23FFF704FA58
:1046200000950195032029462A46FF23FFF7FCF950
:1046300030E0012F2ED1DAF800301B1B03EB4301D1
:1046400000258DF840508DF841508DF8426010A83B
:10465000414401F0ADFFD9F80030234403EB43019E
:104660008DF844508DF845508DF8466011A84144AE
:1046700001F09EFF00950195162029462A46FF234A
:10468000FFF7D2F900950195172029462A46FF2306
:10469000FFF7CAF901340A3EF6B2192C97D113B0CC
:1046A000BDE8F08F6C22FF1FD417FF1FEC17FF1F10
:1046B0009C17FF1F304CFF1FA017FF1FA417FF1FE1
:1046C000D017FF1F2DE9F04F85B004462C4B1B6817
:1046D000029302982B4B1B68C01A09F0B7FBD4E970
:1046E000002309F0B9FE002846D0274BD3F800C0BC
:1046F000264BD3F80090264B1B680193254B1F686F
:10470000254B1B680093254A254E331F04364FF076
:10471000010A4FF002082348FF21194D52F8044BBB
:10472000012C0BD15C6801345C60644506DB4C45B0
:1047300004DC019C5C6042F8048C03E052F8044CF9
:10474000022C08D15C6801345C60BC4203DB009C35
:104750005C6042F804AC53F8044F04EB440B00EBEC
:104760000B0400F80B106170A1702C680394039C7B
:10477000B342D3D1034B1C6005B0BDE8F08F00BF3E
:104780003451FF1F244CFF1FAC17FF1F6C18FF1F75
:10479000C017FF1FC817FF1FA417FF1F7417FF1FA5
:1047A000F04AFF1F6C22FF1FF0B583B00446184B80
:1047B0001B6800930098174B1B68C01A09F046FB52
:1047C000D4E9002309F048FEF8B1134B1D68134BE0
:1047D000D3F800C0124F3B1F0437124CFF210C4E80
:1047E0005A680132AA42A8BF62465A6053F8040FC1
:1047F00000EB4000221821545170917032680192F0
:10480000019ABB42ECD1034B1A6003B0F0BD00BF6C
:104810003451FF1F0436FF1F9C17FF1F0018FF1F96
:104820004418FF1F6C22FF1FF8B5514B9B78022BD9
:1048300027D1504ED6E900452046294646A3D3E964
:10484000002309F079FB02460B462046294609F071
:10485000BFF9C6E90001484ED6E900452046294681
:104860003DA3D3E9002309F067FB02460B4620462F
:10487000294609F0ADF9C6E9000101200021FFF742
:104880008FFD3C4C2046FFF78FFF3B48FFF71AFF98
:10489000D4E900452046294631A3D3E9002309F095
:1048A00099F906460F46204629462FA3D3E900234F
:1048B00009F042FB02460B463046394609F08AF9B8
:1048C00004460D460022002309F0A8FD48B9204601
:1048D00029460022294B09F0BFFD20B10024274DB5
:1048E00001E000240025234BC3E90045224BD3E916
:1048F0000045204629461AA3D3E9002309F06AF9A6
:1049000006460F462046294617A3D3E9002309F09F
:1049100013FB02460B463046394609F05BF9044664
:104920000D460022002309F079FD48B920462946AA
:104930000022124B09F090FD20B100240F4D01E040
:10494000002400250C4BC3E90045FA20FDF724FCA8
:10495000F8BD00BFAFF30080000000403333EB3FF1
:10496000000000A09999C93F00000040E17A843F0F
:10497000E835FF1FF84AFF1F6032FF1F0000694043
:10498000F8B5554B9B78022B15D1544ED6E900450E
:10499000204629464AA3D3E9002309F0CDFA02466E
:1049A0000B462046294609F013F9C6E90001032009
:1049B0000021FFF7F5FC484B1B7B022B15D1484E1D
:1049C000D6E90045204629463DA3D3E9002309F056
:1049D000B3FA02460B462046294609F0F9F8C6E923
:1049E000000103200121FFF7DBFC3C4C2046FFF7D0
:1049F000DBFE3B48FFF766FED4E90045204629462A
:104A000031A3D3E9002309F0E5F806460F46204616
:104A100029462FA3D3E9002309F08EFA02460B465C
:104A20003046394609F0D6F804460D4600220023E8
:104A300009F0F4FC48B9204629460022294B09F028
:104A40000BFD20B10024274D01E000240025234B5D
:104A5000C3E90045224BD3E90045204629461AA365
:104A6000D3E9002309F0B6F806460F46204629464A
:104A700017A3D3E9002309F05FFA02460B4630463C
:104A8000394609F0A7F804460D460022002309F034
:104A9000C5FC48B9204629460022124B09F0DCFC2F
:104AA00020B100240F4D01E0002400250C4BC3E988
:104AB0000045FA20FDF770FBF8BD00BFAFF30080A2
:104AC000000000403333EB3F000000A09999C93F3C
:104AD00000000040E17A843FE835FF1FF84AFF1FDD
:104AE0006032FF1F0000694010B480B20A4C228877
:104AF00002EB422302EB830303F5585319339BB2B5
:104B00002380091A89B203FB01F300EB134080B242
:104B10005DF8044B704700BFB818FF1F2DE9F04F38
:104B20002DED068B8DB082468946B0EE409AF0EEB0
:104B3000609A1C469DF87480531EDBB20D2B00F268
:104B40008280684B53F822301C44B4F5FA7FA8BF2A
:104B50004FF4FA7424EAE470634D2860634B1B68D9
:104B6000009300214FF4FA720B4605F083FA286097
:104B700009F07CF953EC192B09F0DEF9002200232F
:104B800009F06AFC002800F0A7800025584FDFF8E4
:104B90007CB19FED58AACDF80C80DDF870805046AE
:104BA0004946FFF7A1FF00EB4006BC19524B1B78AA
:104BB0000122009208A859465FFA88F201F0C6FB6C
:104BC0009DF82030BB559DF8213063709DF8223050
:104BD000A370039A62B1484B1A7800238DF82430F1
:104BE0008DF825308DF8262009A8214601F0E0FC3B
:104BF000424B1A7807EE902AF8EEE77A3A4A1468A0
:104C000006EE904AB8EEE67A27EE0A7A77EE877AD1
:104C1000FCEEE77A17EE902A1A700135284609F063
:104C200025F941EC180B204609F020F953EC192B1B
:104C300009F082F902460B4651EC180B09F0EEFB25
:104C40000028ACD148E02E4B1B6813F0010F0DD1AA
:104C50002B4803F025FC48B12A4B1B680593059AA5
:104C6000294B1A605C60264803F020FC254B1B682A
:104C700007930799244B1A688A1A5B689A422BD3C8
:104C8000204B1B680693069A1F4B1A6050464946F4
:104C9000FFF72AFF00EB4000154C0444164B1B782D
:104CA0001C9A8DF82820FF228DF829208DF82A30B3
:104CB0000AA8214601F07CFCB8F1000F0CD00E4B85
:104CC0001A7800238DF82C308DF82D308DF82E2099
:104CD0000BA8214601F06CFC0DB0BDEC068BBDE8C5
:104CE000F08F00BF0C35FF1F544BFF1F2C4CFF1FD4
:104CF0006C22FF1FCDCCCC3DD031FF1F9431FF1F64
:104D0000284CFF1F3451FF1F5422FF1F9831FF1FF3
:104D10002DE9F04F2DED048B89B0794B1B78002BDA
:104D200063D0FF22774B1A701922774B1A60002448
:104D3000764A52F824300134A4B2DBB2FF2BF8D10A
:104D4000724E3368C3F3072CC3F307474FEA136A65
:104D5000FF2204924FF0000B0594029756F8042F9F
:104D6000D4B2C2F30725EFB20397C2F307405FFA4C
:104D700080F8C2F307625FFA82F94FEA2B1B5FFAF1
:104D80008BF12309059F0F2F0ED8049F4FFA87FE42
:104D9000714507DCBEF10E0F04DC791CC9B29942E3
:104DA00028BF0B46DFB204978DF81CC0029F8DF818
:104DB0001D708DF81EA08DF818508DF819008DF813
:104DC0001A2006AA0092524807AA01F04DFAFE2CBA
:104DD00006DCCA46CDF80880DDF80CC0A346BDE766
:104DE00000234C4A1370464A13704B4E30684B4DAB
:104DF00029689FED3F8B0024009401940C22B0EEB3
:104E0000480AF0EE680A6FF03103FFF787FEDFF81B
:104E10002881D8F8000031684023009301940822CB
:104E2000B0EE480AF0EE680A6FF03103FFF776FE45
:104E300028683B4E31689FED309B8025009501949A
:104E40000222B0EE490AF0EE690A6FF03103FFF773
:104E500065FE344F3868344B19680095019402227E
:104E6000B0EE490AF0EE690A6FF03103FFF756FE23
:104E70002E4B1868D8F80010009501940222B0EE6D
:104E8000490AF0EE690A6FF03103FFF747FE284D3B
:104E900028683968C023009301940822B0EE480ABC
:104EA000F0EE680A6FF03103FFF738FE30682968CA
:104EB000F023009301940C22B0EE480AF0EE680A49
:104EC0006FF03103FFF72AFE1A4C2078C0F1FE0084
:104ED000FDF762F92378023B142BA8BF142323EAC1
:104EE000E373237009B0BDEC048BBDE8F08F00BF05
:104EF000000000A09999B93F000000A09999C93F0E
:104F00000C18FF1FD031FF1F2C4CFF1FA0EF00001B
:104F10009831FF1F084BFF1F0818FF1F9C17FF1F2A
:104F2000A417FF1FD017FF1FD417FF1F304CFF1F00
:104F3000AC17FF1F9431FF1FEC17FF1FAFF300806A
:104F40002DE9F04F89B0364B1B78002B63D0FF2240
:104F5000344B1A701922344B1A600024334A52F829
:104F600024300134A4B2DBB2FF2BF8D12F4E3368CA
:104F7000C3F3072CC3F307474FEA136AFF220492D7
:104F80004FF0000B0594029756F8042FD4B2C2F3E9
:104F90000725EFB20397C2F307405FFA80F8C2F328
:104FA00007625FFA82F94FEA2B1B5FFA8BF1230944
:104FB000059F0F2F0ED8049F4FFA87FE714507DC1F
:104FC000BEF10E0F04DC791CC9B2994228BF0B4612
:104FD000DFB204978DF81CC0029F8DF81D708DF80C
:104FE0001EA08DF818508DF819008DF81A2006AA09
:104FF00000920F4807AA01F037F9FE2C06DCCA46DA
:10500000CDF80880DDF80CC0A346BDE70023094AAF
:105010001370034A1370FFF77BFE09B0BDE8F08FF1
:105020000C18FF1FD031FF1F2C4CFF1F40EF00005A
:105030009831FF1F084BFF1FF0B4B54B1B68B54AF2
:10504000126893420FDA9900B34E0E44B34D0D44EB
:1050500000216FF01004A3F1110070506C50013367
:1050600004319342F7DBAE4B1B68934210DD910095
:10507000A94F0F44A94E0E44002108256FF00F04DC
:10508000A41A7D50A0187050013204319A42F8DB06
:10509000A44A12689A4210DD99009F4F0F449F4E18
:1050A0000E440021C3F109056FF00704E818785099
:1050B0007450013304319342F8DB9B4B1B689342DD
:1050C0000FDD9100944E0E44944D0D446FF0090095
:1050D00000211224745068500132043101389A4280
:1050E000F8DB924A12689A420FDD99008A4E0E440C
:1050F0008A4D0D44002111206FF0110470506C5046
:105100000133013804319342F8DB894B1B68934229
:1051100010DD9100804F0F44804E0E440021C2F1FB
:1051200009056FF00F04A81878507450013204314B
:105130009A42F8DB7F4A1168994210DD9A00764F57
:105140001744764E1644002210256FF00F04E41A1F
:10515000BD50E018B050013304328B42F8DB764B7F
:105160001A688A420FDD8B006B4E1E446B4D1D4446
:10517000002310206FF00904F050EC500131013889
:1051800004339142F8DB6D4B1B6893420FDD9100B5
:10519000614E0E44614D0D446FF0090000210A2458
:1051A000745068500132043101389A42F8DB644A85
:1051B00012689A420FDD9900574E0E44574D0D4428
:1051C0006FF0110000210A2474506850013304313B
:1051D00001389342F8DB5B4B1B68934210DD910072
:1051E0004D4F0F444D4E0E440021C2F10A056FF0A1
:1051F0001804A81878507450013204319A42F8DB30
:10520000514A12689A4210DD9900434F0F44434EB1
:105210000E44002119256FF01704E41A7D50E018A0
:105220007050013304319342F8DB484B1B689342C2
:105230000FDD9100384E0E44384D0D4400211820EA
:105240006FF0070470506C500132013804319A42FB
:10525000F8DB3F4A12689A4210DD99002E4F0F4446
:105260002E4E0E44002111256FF00704E41A7D50E4
:10527000E0187050013304319342F8DB354B1B6862
:1052800093420EDD9100244E0E44244D0D44002126
:105290001020112470506C500132013804319A42B0
:1052A000F8DB2D4A1168994210DD9A001A4F174415
:1052B0001A4E164400226FF00905C3F11204BD50C6
:1052C000E018B050013304328B42F8DB234B1A68EC
:1052D0008A420FDD8B00104E1E44104D1D440023EA
:1052E0006FF009001924F050EC50013101380433FB
:1052F0009142F8DB1A4B1B6893423ADD9100064E4F
:105300000E44064D0D44182000216FF0180429E0CA
:10531000304CFF1FEC17FF1F7426FF1FD02BFF1F01
:105320001018FF1FF017FF1FF417FF1FF817FF1FBC
:10533000FC17FF1F0018FF1F0418FF1F0818FF1F8E
:105340009017FF1F9417FF1F9817FF1F9C17FF1F31
:10535000A017FF1FA417FF1FA817FF1FA818FF1FE4
:10536000AC18FF1F745068500132043101389A4262
:10537000F8DB674A12689A4210DD9900654F0F44C6
:10538000654E0E4400216FF01805ED1A0A24E81846
:1053900078507450013304319342F8DB5F4B1B6843
:1053A000934210DD91005B4F0F445B4E0E44002191
:1053B0006FF01105C2F10A047D50A018705001323F
:1053C00004319A42F8DB564A12689A4210DD99007D
:1053D000504F0F44504E0E4400216FF00F05ED1A50
:1053E0001224E81878507450013304319342F8DBEA
:1053F0004C4B1B6893420FDD9100464E0E44464DC8
:105400000D44102000216FF00704745068500132E1
:10541000043101389A42F8DB434A12689A420FDDA0
:1054200099003C4E0E443C4D0D4400216FF00900A4
:10543000082470506C500133013804319342F8DB7A
:105440003A4B1B68934210DD9100324F0F44324EAD
:105450000E4400216FF00F05AD1A0A24A8187850E9
:105460007450013204319A42F8DB314A1168994292
:1054700010DD9A00274F1744274E164400226FF084
:105480000905C3F10A04BD50E018B05001330432DD
:105490008B42F8DB274B1A688A420FDD8B001D4ECA
:1054A0001E441D4D1D4400236FF009001024F050D0
:1054B000EC500131013804339142F8DB1E4B1B687C
:1054C00093420FDD9100134E0E44134D0D441020F6
:1054D00000216FF00F04745068500132043101381C
:1054E0009A42F8DB154A106898420FDD9A00094E7F
:1054F0001644094D1544082100226FF01004B450E1
:10550000A9500133043201398342F8DBF0BC704703
:10551000AC17FF1F7426FF1FD02BFF1F7C17FF1F28
:105520006C18FF1FBC17FF1FC017FF1FC417FF1FFA
:10553000C817FF1FCC17FF1FD017FF1FD417FF1F5F
:1055400010B56B4C204640F6B83102F015FA2046F3
:1055500068494FF4E13202F0EBF92046012102F0F4
:10556000C9F960B1606C03685B68634911229847B0
:1055700020460A2102F0B2F9204602F0D7F95C4831
:105580000021012202F06CFA5C4800F039FE5C4810
:1055900000F036FE0A20022103F0FEFA0420022168
:1055A00003F0FAFA0A2003F0E9FA01280DD10022EB
:1055B000544B1A604F4C23685B68204652490C22BA
:1055C0009847204604F094FC0CE001224D4B1A60F1
:1055D000484C23685B6820464C490C22984720467B
:1055E00004F086FC4A480C2104F044FA494800F0D3
:1055F000D9FA444B1B6873B946482021552200F064
:1056000075FAF0B14348C28842F00402242192B2F4
:1056100000F06CFA15E0012B13D13E482A2140F22C
:10562000731200F063FA60B13A482021882200F03A
:105630005DFA30B13748C28822F00402242100F01C
:1056400055FA354B4FF400429A61DA61334B1B68CF
:1056500013F0010F26D1314802F022FF10B3304B76
:1056600000215960FF221A735A739A73DA731A74FD
:105670005A7401229A74596199602A4B1B6813B9B4
:10568000274A284B1A60284B1B680BB1244A9A60A2
:10569000234B254A1360254A1A6000229A611F484D
:1056A00002F004FF1E48224940F25712002300F086
:1056B00057FF00231E481A4640F205441A54C118E9
:1056C0004A708A700333A342F8D1FFF7B5FCFBF7A9
:1056D00051FD0122174B1A70064C23685B68204667
:1056E00015490F229847204604F002FC10BD00BF68
:1056F000744FFF1F5852FF1F5CEF0000584BFF1FF5
:10570000644BFF1F044BFF1F70EF000080EF000091
:105710000002FF1F7C31FF1F4835FF1F0C22FF1FB7
:10572000E821FF1F984CFF1FA84CFF1F20EF00002F
:105730006C22FF1FD035FF1F90EF0000F0B58BB03B
:1057400040F25713013BFDD1534F384600210A4622
:10575000FBF790FC514B3B60384600F07DFB504D11
:105760002846042105F12802FBF784FC4D4B2B60F1
:105770004FF48033AB61EB612B626B624A4E304673
:10578000012106F5A252FBF775FC484B3360484BEC
:10579000C6F81834002441F23C43F45441F23D432E
:1057A000F45406F5A25004304FF4806122460123E0
:1057B00007F0D8FF3F480760456004724472C46038
:1057C00004F04AFA3C4807604560012202724272C6
:1057D000C46004F041FA39480560466004724472BE
:1057E000C46004F039FA364B364A1A600A221A723B
:1057F000354B1A6809920999344A11601A6808925F
:105800000899334A11601A6807920799314A116062
:10581000314A1168314A11601A6806920699304A75
:105820001160304A30490968116030490968516097
:105830001A68059205992E4A11601B680493049A10
:105840002C4B1A602C4C04F52875204601F086FF7D
:105850003034AC42F9D11C4C23680393039A274B94
:105860001A6027480C2100F0C1FC26481E2100F0D8
:10587000BDFC23680293029A234B1A60234B2046F7
:1058800003F1380102680192019A43F8042B8B421C
:10589000F8D10BB0F0BD00BF8035FF1FF8F7000056
:1058A0004835FF1F08F800009836FF1FC8F70000B2
:1058B000BCEF00002022FF1F3022FF1F4022FF1FED
:1058C0007C31FF1FD8F700003451FF1F1022FF1F4B
:1058D0001422FF1FFC35FF1F9017FF1F4418FF1FE6
:1058E0000436FF1FF04AFF1FA817FF1FAC18FF1F49
:1058F000244CFF1F1036FF1F6832FF1F1822FF1FA6
:10590000584BFF1F644BFF1F6822FF1F704BFF1F88
:1059100001F5807231F8023B40F8043B9142F9D125
:10592000704700BFF8B50646002104F065F900286D
:1059300000F0D48041F23C43F35C072B00F2CE80B0
:10594000DFE803F0040B121920272E35C6F81C04DB
:10595000012241F23C43F254F8BDC6F82004022271
:1059600041F23C43F254F8BDC6F82404032241F24C
:105970003C43F254F8BDC6F82804042241F23C43EB
:10598000F254F8BDC6F82C04052241F23C43F2540F
:10599000F8BDC6F83004062241F23C43F254F8BD8B
:1059A000C6F83404072241F23C43F254F8BDC6F86D
:1059B000380406F23C45D6F81C1428460431FFF79B
:1059C000A7FFD6F8201406F23C600431FFF7A0FFD1
:1059D000D6F8241406F63C000431FFF799FFD6F8F8
:1059E000281406F63C200431FFF792FFD6F82C1459
:1059F00006F63C400431FFF78BFFD6F8301406F66C
:105A00003C600431FFF784FFD6F8341406F581506A
:105A10001C300431FFF77CFFD6F8381406F591509E
:105A20001C300431FFF774FFD6F818247AB106F55C
:105A3000886302F5006433F9041C32F9020B00FBA1
:105A400001F1C91323F8041C0433A242F3D106F573
:105A5000A2500430294607F067FE06F11601002324
:105A60001F4FEA5822FB02F2B2FA82F037F81040D8
:105A7000B2FBF4F004446408B2FBF4F2144464088A
:105A800021F8024F0433B3F5006FEAD1012241F24D
:105A90003D43F254D6F81C0404F078F8D6F82004FC
:105AA00004F074F8D6F8240404F070F8D6F828044A
:105AB00004F06CF8D6F82C34C6F81C34D6F8303420
:105AC000C6F82034D6F83434C6F82434D6F838343E
:105AD000C6F82834042241F23C43F254F8BD00BF1A
